:1000000019C033C032C031C030C02FC02EC02DC087
:100010002CC02BC02AC029C028C027C026C025C09C
:100020009BC223C022C021C020C01FC01EC01DC053
:1000300015C11BC011241FBECFEFD2E0DEBFCDBF64
:1000400011E0A0E0B1E0ECEAFDE002C005900D9205
:10005000A439B107D9F712E0A4E9B1E001C01D92BB
:10006000A435B107E1F7D7D49FC6CACF91E09093EA
:10007000990180939601109297011092980108952A
:1000800090919801903268F490919701E92FF0E0F7
:10009000E85DFD4F8083892F8F5F80939701809368
:1000A000980108958091950190919401891B08957C
:1000B0009091940180919501981710F080E0089537
:1000C000E92FF0E0E85FFD4F80819F5F90939401FE
:1000D000089510920402449A459AE9EBF0E0808179
:1000E0008E7F808380818D7F808380E28093B800C3
:1000F00085E48093BC0008951092940110929501BC
:100100001092970110929801E4DF0895413210F0A7
:1001100040E02FC0909104029923E1F791E0909381
:1001200004029FEF909303021092BE01942F91500E
:100130009093BF01880F81608093050285EE8093C4
:10014000BC00809104028130E1F38091BE018417EC
:1001500010F44091BE0180E090E009C0FB01E80F7F
:10016000F91FDC01A256BE4F2C9120830196841703
:10017000A8F3842F0895462F613208F040E268E02A
:1001800072E0C4DF1092940180939501089541328A
:1001900010F081E00895909104029923E1F792E034
:1001A000909304029FEF909303021092BE0140933C
:1001B000BF01DB01EEE9F1E050E04E0F5F1F02C02E
:1001C0009D919193E417F507D9F790E0880F991F57
:1001D0008093050285EE8093BC00222321F080915C
:1001E00004028230E1F3809103028F3F11F480E03A
:1001F000089580910302803211F482E00895809185
:100200000302803311F084E0089583E00895809123
:10021000960168E272E04091980121E0B8DF109207
:10022000970110929801109299010895882311F076
:1002300085EC01C085E88093BC00089585ED80932E
:10024000BC008091BC0084FDFCCF10920402089594
:1002500085EC8093BC001092040208951F920F92C7
:100260000FB60F9211242F933F934F935F936F9389
:100270007F938F939F93AF93BF93EF93FF9380915F
:10028000B90090E0887F90708036910509F4DFC056
:1002900081369105E4F58832910509F47EC08932F2
:1002A0009105C4F48031910509F472C08131910542
:1002B00044F4009709F434C18830910509F03BC13A
:1002C00067C08831910509F468C08032910509F052
:1002D00032C17EC08034910509F4A0C081349105FB
:1002E0004CF48033910509F47EC08833910509F000
:1002F00022C184C08035910509F484C088359105F8
:1003000009F491C08834910509F015C198C0883965
:10031000910509F4FDC089399105ECF48837910500
:1003200009F495C0893791054CF48836910509F494
:100330008EC08037910509F0FEC089C088389105CC
:1003400009F4E6C08039910509F487C08038910529
:1003500009F0F1C082C0803B910509F4B0C0813B37
:1003600091054CF4803A910509F489C0883A9105C9
:1003700009F0E1C0A4C0803C910509F4CDC0883CDF
:10038000910509F4C9C0883B910509F0D4C0ACC0FF
:10039000809105028093BB00B9C09091BE0180910D
:1003A000BF01981768F48091BE01E82FF0E0E25693
:1003B000FE4F90819093BB008F5F8093BE01A6C0DB
:1003C00085ED8093BC008091BC0084FDFCCFB1C062
:1003D00080E28093030285ED8093BC008091BC0095
:1003E00084FDFCCFA6C080E38093030285ED80935B
:1003F000BC008091BC0084FDFCCF9BC088E380934F
:1004000003028AC08091BE019091BB00E82FF0E00A
:10041000E256FE4F90838F5F8093BE019091BE01A4
:100420008091BF0171C08091BE019091BB00E82F07
:10043000F0E0E256FE4F90838F5F8093BE0185ED22
:100440008093BC008091BC0084FDFCCF72C083E02F
:10045000809304021092020259C0809102028032FD
:1004600008F056C0809102029091BB00E82FF0E0A6
:10047000EE51FE4F90838F5F8093020247C08091C0
:100480000202803230F4E0910202F0E0EE51FE4FC1
:10049000108285ED8093BC008091BC0084FDFCCF70
:1004A0001092040260910202E0919C01F0919D0182
:1004B00082EE91E070E00995109202022DC084E076
:1004C000809304021092E0011092E101E0919A0100
:1004D000F0919B0109958091E101882329F481E045
:1004E0008093E1011092C0018091E001E82FF0E0DB
:1004F000E054FE4F90819093BB008F5F8093E001AA
:100500009091E0018091E101981710F485EC01C011
:1005100085E88093BC000FC085EC8093BC0009C0C7
:100520001092030285ED8093BC008091BC0084FD95
:10053000FCCF10920402FF91EF91BF91AF919F9178
:100540008F917F916F915F914F913F912F910F907C
:100550000FBE0F901F9018951F920F920FB60F921B
:1005600011242F933F938F939F93EF93FF9315B88D
:1005700090910702292F30E0F901E657FE4F808164
:100580008BB980910602882329F4285B3D4FF9013D
:10059000208125B99F5F90930702963058F0109202
:1005A00007028F5F8093060290915202981710F411
:1005B00010920602FF91EF919F918F913F912F91A1
:1005C0000F900FBE0F901F90189590917C00982B64
:1005D00090937C0080917A00806480937A0080916F
:1005E0007A0084FFFCCF80917A00806180937A004A
:1005F0002091780030917900C90108951092480245
:100600001092490210924A0210924B0210924C0230
:1006100010924D0220E030E00DC0F0E0E65DFE4FAC
:100620004081F901E85BFD4F40832F5F3F4F26304B
:10063000310581F0FC01E20FF31FE081EE2369F741
:1006400009C090E09F5FF9013197F1F79A30D1F737
:100650008F5F03C080E020E23EE4861790F30895A8
:100660001F93CF93DF93EC0110E003C062E0C6DF7D
:100670001F5FCE01810F911DFC0120812223B1F764
:10068000DF91CF911F910895282F6AE059D2382F1A
:100690003295307F822F54D2832F890F089580E0C6
:1006A00091E065E0ABDF81E091E061E0A7DF80E011
:1006B00090E020E23EE4F9013197F1F7309B05C06C
:1006C000019647E280319407B1F708950F931F9385
:1006D000DF93CF930F92CDB7DEB7182F062F80E0B0
:1006E00091E065E049838ADF20E23EE4498101C070
:1006F000102F812F6AE024D2E92FF0E0E65BFE4F55
:10070000808980934D02812F1BD2E82FF0E0E65BB9
:10071000FE4F808980934C0280E08F5FF901319712
:10072000F1F78A30D1F780E08F5FF9013197F1F767
:100730008A30D1F780E08F5FF9013197F1F78A3085
:10074000D1F780E00BC09F5FF9013197F1F79A3044
:10075000D1F7309B05C08F5F8E3139F090E0F3CF39
:100760001F5F411708F0C5CFC3CF812F0F90CF91E6
:10077000DF911F910F910895CF92DF92EF92FF9238
:100780000F931F93CF93DF9383E01FDF59D210E0C5
:1007900091E0C92ED12CC0E2DEE44ED266E070E0DA
:1007A000EFD19C0188E4E82E82E0F82EE20EF31EE1
:1007B000F701008141D267E070E0E2D1960102C00A
:1007C000220F331F8A95E2F70227F7010083CE013B
:1007D0000197F1F7CE010197F1F71F5F1F3FE9F68F
:1007E00087E091E03DDFDF91CF911F910F91FF9066
:1007F000EF90DF90CF9008951F93DF93CF930F92E8
:10080000CDB7DEB7182F8FE6698330DC812F38DC57
:100810006981862F35DCFBDC0F90CF91DF911F9132
:1008200008951F93CF93DF9380E091E061E0E6DECF
:10083000309BFECF10E08EE191E061E0DFDE309989
:100840000FC08091510260E047E140DF8093510288
:100850008091510219DF682F82E0CEDF10E004C0E2
:100860001F5F1E3141F7FACF84E291E061E0C6DEFE
:1008700030990FC08091500260E04BE327DF8093F6
:1008800050028091500200DF682F81E0B5DF10E058
:1008900004C01F5F1E3141F7FACF8AE291E061E0A8
:1008A000ADDE309906C0FBDE80E060E8A5DF10E039
:1008B00004C01F5F1E3189F7FACF81E391E061E048
:1008C0009DDE309931C088E391E062E097DE80E000
:1008D000C0E2DEE404C08F5FFE013197F1F78A3099
:1008E000D0F383E072DE6AE070E036D1262F862FE7
:1008F0006AE026D1E92FF0E0E65BFE4F8089809325
:100900004D02822F1DD1E82FF0E0E65BFE4F80897B
:1009100080934C02309B02C080E0DDCF80E091E00C
:1009200062E06CDE10E004C01F5F1E3131F6FACFCA
:100930008DE391E061E062DE30990EC08091530258
:1009400060E043E6C3DE80934F0280E090E0609178
:10095000530289D110E004C01F5F1E3149F7FACF5E
:1009600084E491E061E04ADE30990CC080914F024E
:1009700060E044E1ABDE682F80934F0281E090E0BD
:1009800072D103C01F5F1E3159F7DF91CF911F91C4
:1009900008951F93182F8FE669DB812F71DB37DCF9
:1009A0008FE661E0E8DB10E002C082DB182F7ADB23
:1009B0008823D9F7812F1F91089580E0EADF282F3F
:1009C0002695269526952E70922F990F990F920FA6
:1009D0008F70980F90934E0281E0DBDF282F2695D1
:1009E000269526952E70922F990F990F920F8F7042
:1009F000980F9093500282E0CCDF282F2695269501
:100A000026952670922F990F990F920F8F70980F3D
:100A1000909351020895CF93DF938FEF84B915B867
:100A20008CEF8AB91BB817B881E088B987E8809342
:100A30007A0085B5826085BD80916E00816080936B
:100A40006E00789459DB80E090E005D180935302EA
:100A5000882319F482E380935302809153028436F1
:100A600018F082E38093530281E090E0F4D0809309
:100A70004F02813118F080E180934F027DDEC0E2A9
:100A8000DEE4309BCEDE99DF80914E026AE058D0E2
:100A9000E92FF0E0E65BFE4F808980934D02809164
:100AA0004E024ED0E82FF0E0E65BFE4F8089809347
:100AB0004C028091500244D0E92FF0E0E65BFE4FFB
:100AC0008089806880934B028091500239D0E82F52
:100AD000F0E0E65BFE4F808980934A0280915102EC
:100AE0002FD0E92FF0E0E65BFE4F8089806880938D
:100AF00049028091510224D0E82FF0E0E65BFE4FDE
:100B000080898093480280914E0280FD10C083E06E
:100B10005CDD6AE070E020D080915302861718F403
:100B20001092520204C080914F028093520280E0E2
:100B30008F5FFE013197F1F78A3009F4A2CFF8CF29
:100B4000991B79E004C0991F961708F0961B881F1F
:100B50007A95C9F780950895AA1BBB1B51E107C080
:100B6000AA1FBB1FA617B70710F0A61BB70B881F3D
:100B7000991F5A95A9F780959095BC01CD010895CC
:100B800097FB092E07260AD077FD04D0E5DF06D0B3
:100B900000201AF4709561957F4F0895F6F79095AF
:100BA00081959F4F0895A0E0B0E0E8EDF5E0ABC07F
:100BB000EC01E880F9800A811B81E114F104010550
:100BC000110541F484E2E82E89EDF82E8BE5082F1B
:100BD00087E0182FC801B7012DE133EF41E050E065
:100BE0006FD027EA31E440E050E04BD05B016C016C
:100BF000C801B7012DE133EF41E050E061D0CA01F7
:100C0000B9012CEE34EF4FEF5FEF3BD06A0D7B1D47
:100C10008C1D9D1D97FF04C061507040804090481E
:100C2000688379838A839B837F77CB01CDB7DEB7D7
:100C3000EAE085C0B8DF089580E991E0B4DF089567
:100C4000A0E0B0E08093900190939101A093920175
:100C5000B09393010895F999FECF12BC81BDF89A23
:100C6000992780B50895262FF999FECF1FBA12BC97
:100C700081BD20BD0FB6F894FA9AF99A0FBE01967D
:100C80000895629FD001739FF001829FE00DF11DD6
:100C9000649FE00DF11D929FF00D839FF00D749FF6
:100CA000F00D659FF00D9927729FB00DE11DF91FA2
:100CB000639FB00DE11DF91FBD01CF0111240895FF
:100CC00097FB092E05260ED057FD04D04BD00AD035
:100CD000001C38F450954095309521953F4F4F4F6B
:100CE0005F4F0895F6F790958095709561957F4FC9
:100CF0008F4F9F4F08952F923F924F925F926F9226
:100D00007F928F929F92AF92BF92CF92DF92EF929B
:100D1000FF920F931F93CF93DF93CDB7DEB7CA1B1C
:100D2000DB0B0FB6F894DEBF0FBECDBF09942A8847
:100D3000398848885F846E847D848C849B84AA84EF
:100D4000B984C884DF80EE80FD800C811B81AA817C
:100D5000B981CE0FD11D0FB6F894DEBF0FBECDBF47
:100D6000ED010895A1E21A2EAA1BBB1BFD010DC0C7
:100D7000AA1FBB1FEE1FFF1FA217B307E407F5074B
:100D800020F0A21BB30BE40BF50B661F771F881F27
:100D9000991F1A9469F760957095809590959B01BD
:0C0DA000AC01BD01CF010895F894FFCF15
:100DAC000050524553530020202020203349434CFF
:100DBC004F434B2052312E31202020202000534510
:100DCC0054204800534554204D005A45524F20534F
:100DDC0000425249474854004252492E005448524E
:100DEC00455348004C4556454C00008622360000C1
:100DFC000002391F0000004080523F065B4F666DB9
:100E0C007D077F6F00000000000000777C585E7942
:100E1C00713D74301E753837545C736B506D781C93
:100E2C003E7E766E5B30640601088040201008041C
:040E3C0001000000B1
:00000001FF
