:1000000019C033C032C031C030C02FC02EC02DC087
:100010002CC02BC02AC029C028C027C026C025C09C
:10002000CFC223C022C021C020C01FC01EC01DC01F
:1000300015C11BC011241FBECFEFD2E0DEBFCDBF64
:1000400011E0A0E0B1E0EAE5FBE002C005900D920E
:10005000AA37B107D9F712E0AAE7B1E001C01D92B3
:10006000A434B107E1F7A1D476C5CACF91E090934B
:100070007F0180937C0110927D0110927E01089592
:1000800090917E01903268F490917D01E92FF0E02B
:10009000ED5EFD4F8083892F8F5F80937D0180937C
:1000A0007E01089580917B0190917A01891B0895CA
:1000B00090917A0180917B01981710F080E008956B
:1000C000E92FF0E0ED50FE4F80819F5F90937A0121
:1000D00008951092EA01449A459AE9EBF0E0808194
:1000E0008E7F808380818D7F808380E28093B800C3
:1000F00085E48093BC00089510927A0110927B01F0
:1001000010927D0110927E01E4DF0895413210F0DB
:1001100040E02FC09091EA019923E1F791E090939C
:10012000EA019FEF9093E9011092A401942F91505E
:100130009093A501880F81608093EB0185EE8093F9
:10014000BC008091EA018130E1F38091A401841721
:1001500010F44091A40180E090E009C0FB01E80F99
:10016000F91FDC01AC57BE4F2C91208301968417F8
:10017000A8F3842F0895462F613208F040E263EF20
:1001800071E0C4DF10927A0180937B0108954132BF
:1001900010F081E008959091EA019923E1F792E04F
:1001A0009093EA019FEF9093E9011092A40140938C
:1001B000A501DB01E4E8F1E050E04E0F5F1F02C053
:1001C0009D919193E417F507D9F790E0880F991F57
:1001D0008093EB0185EE8093BC00222321F0809177
:1001E000EA018230E1F38091E9018F3F11F480E070
:1001F00008958091E901803211F482E008958091A0
:10020000E901803311F084E0089583E0089580913E
:100210007C0163E172E040917E0121E0B8DF109241
:100220007D0110927E0110927F010895882311F0C4
:1002300085EC01C085E88093BC00089585ED80932E
:10024000BC008091BC0084FDFCCF1092EA010895AF
:1002500085EC8093BC001092EA0108951F920F92E2
:100260000FB60F9211242F933F934F935F936F9389
:100270007F938F939F93AF93BF93EF93FF9380915F
:10028000B90090E0887F90708036910509F4DFC056
:1002900081369105E4F58832910509F47EC08932F2
:1002A0009105C4F48031910509F472C08131910542
:1002B00044F4009709F434C18830910509F03BC13A
:1002C00067C08831910509F468C08032910509F052
:1002D00032C17EC08034910509F4A0C081349105FB
:1002E0004CF48033910509F47EC08833910509F000
:1002F00022C184C08035910509F484C088359105F8
:1003000009F491C08834910509F015C198C0883965
:10031000910509F4FDC089399105ECF48837910500
:1003200009F495C0893791054CF48836910509F494
:100330008EC08037910509F0FEC089C088389105CC
:1003400009F4E6C08039910509F487C08038910529
:1003500009F0F1C082C0803B910509F4B0C0813B37
:1003600091054CF4803A910509F489C0883A9105C9
:1003700009F0E1C0A4C0803C910509F4CDC0883CDF
:10038000910509F4C9C0883B910509F0D4C0ACC0FF
:100390008091EB018093BB00B9C09091A401809142
:1003A000A501981768F48091A401E82FF0E0EC57BC
:1003B000FE4F90819093BB008F5F8093A401A6C0F5
:1003C00085ED8093BC008091BC0084FDFCCFB1C062
:1003D00080E28093E90185ED8093BC008091BC00B0
:1003E00084FDFCCFA6C080E38093E90185ED809376
:1003F000BC008091BC0084FDFCCF9BC088E380934F
:10040000E9018AC08091A4019091BB00E82FF0E03F
:10041000EC57FE4F90838F5F8093A4019091A401CD
:100420008091A50171C08091A4019091BB00E82F3B
:10043000F0E0EC57FE4F90838F5F8093A40185ED31
:100440008093BC008091BC0084FDFCCF72C083E02F
:100450008093EA011092E80159C08091E80180324E
:1004600008F056C08091E8019091BB00E82FF0E0C1
:10047000E853FE4F90838F5F8093E80147C08091DF
:10048000E801803230F4E091E801F0E0E853FE4FFB
:10049000108285ED8093BC008091BC0084FDFCCF70
:1004A0001092EA016091E801E0918201F0918301EC
:1004B00088EC91E070E009951092E8012DC084E08D
:1004C0008093EA011092C6011092C701E091800169
:1004D000F091810109958091C701882329F481E079
:1004E0008093C7011092A6018091C601E82FF0E029
:1004F000EA55FE4F90819093BB008F5F8093C601B9
:100500009091C6018091C701981710F485EC01C045
:1005100085E88093BC000FC085EC8093BC0009C0C7
:100520001092E90185ED8093BC008091BC0084FDB0
:10053000FCCF1092EA01FF91EF91BF91AF919F9193
:100540008F917F916F915F914F913F912F910F907C
:100550000FBE0F901F90189591E090937F012FE6AA
:1005600020937C018093130290937D0190937E01F0
:100570004EDE8FE661E0FFDD20917B0190917A01F4
:1005800080E008C09217F0F7E92FF0E0ED50FE4F41
:1005900080819F5F2917B1F720937A01089591E038
:1005A00090937F019FE690937C0180931302609368
:1005B000140282E080937D0180937E0128DE0895FD
:1005C0001F920F920FB60F9211242F933F938F9388
:1005D0009F93AF93BF93EF93FF938091EC01909122
:1005E000ED01A091EE01B091EF010196A11DB11DA9
:1005F0008093EC019093ED01A093EE01B093EF0195
:1006000015B89091F201292F30E0F901ED58FE4F15
:1006100080818BB98091F101882329F42D5C3D4FB5
:10062000F901208125B99F5F9093F201963058F02F
:100630001092F2018F5F8093F1019091F001981771
:1006400010F41092F101FF91EF91BF91AF919F9142
:100650008F913F912F910F900FBE0F901F90189583
:1006600090917C00982B90937C0080917A0080641C
:1006700080937A0080917A0084FFFCCF80917A0089
:10068000806180937A002091780030917900C901CF
:100690000895109233021092340210923502109293
:1006A0003602109237021092380220E030E00DC07E
:1006B000F0E0ED5EFE4F4081F901ED5CFD4F4083BF
:1006C0002F5F3F4F2630310581F0FC01E20FF31F11
:1006D000E081EE2369F709C090E09F5FF90131974F
:1006E000F1F79A30D1F78F5F03C080E020E23EE45B
:1006F000861790F30895282F6AE0F7D1382F3295A6
:10070000307F822FF2D1832F890F089580E091E00E
:1007100065E0BFDF81E091E061E0BBDF80E090E079
:1007200020E23EE4F9013197F1F7309B05C00196D4
:1007300047E280319407B1F708950F931F93DF9339
:10074000CF930F92CDB7DEB7182F062F80E091E040
:1007500065E049839EDF20E23EE4498101C0102F1D
:10076000812F6AE0C2D1E92FF0E0ED5CFE4F808975
:1007700080933802812FB9D1E82FF0E0ED5CFE4F75
:1007800080898093370280E08F5FF9013197F1F71C
:100790008A30D1F780E08F5FF9013197F1F78A3025
:1007A000D1F780E08F5FF9013197F1F78A30D1F707
:1007B00080E00BC09F5FF9013197F1F79A30D1F7D4
:1007C000309B05C08F5F8E3139F090E0F3CF1F5F13
:1007D000411708F0C5CFC3CF812F0F90CF91DF9184
:1007E0001F910F9108951F93CF93DF9380E091E0C5
:1007F00061E04FDF309BFECF10E087E091E061E0E9
:1008000048DF30990FC080913C0260E047E195DFFE
:1008100080933C0280913C026EDF682F82E0BFDE55
:1008200010E004C01F5F1E3141F7FACF8DE091E068
:1008300061E02FDF30990FC080913B0260E04BE315
:100840007CDF80933B0280913B0255DF682F81E083
:10085000A6DE10E004C01F5F1E3141F7FACF83E12E
:1008600091E061E016DF309906C050DF80E060E87B
:1008700096DE10E004C01F5F1E3189F7FACF8AE1CF
:1008800091E061E006DF30992DC081E291E062E005
:1008900000DF80E0C0E2DEE404C08F5FFE0131973C
:1008A000F1F78A30D0F383E0DBDE6AE070E029D133
:1008B000262F862F6AE019D1E92FF0E0ED5CFE4F7C
:1008C000808980933802822F10D1E82FF0E0ED5C10
:1008D000FE4F808980933702309B02C080E0DDCFDD
:1008E00010E004C01F5F1E3151F6FACF86E291E09E
:1008F00061E0CFDE30990EC08091430260E043E6B4
:100900001CDF80933A0280E090E06091430215D1B1
:1009100010E004C01F5F1E3149F7FACF8DE291E06D
:1009200061E0B7DE30990CC080913A0260E044E1AA
:1009300004DF682F80933A0281E090E0FED003C08C
:100940001F5F1E3159F7DF91CF911F91089580E00D
:1009500003DE282F2695269526952E70922F990F27
:10096000990F920F8F70980F9093390281E0F4DD08
:10097000282F2695269526952E70922F990F990F40
:10098000920F8F70980F90933B0282E0E5DD282F45
:100990002695269526952670922F990F990F920FDE
:1009A0008F70980F90933C020895CF93DF938FEF51
:1009B00084B915B88CEF8AB91BB817B881E088B92B
:1009C00080E090E0B2D080934302882319F482E360
:1009D0008093430280914302843618F082E380932F
:1009E000430281E090E0A1D080933A02813118F077
:1009F00080E180933A0210923D0210923E021092E2
:100A00003F0210924002109241021092420287E887
:100A100080937A0085B5826085BD80916E0081608B
:100A200080936E00789468DBC0E2DEE4309BDBDE0E
:100A30008EDF809139026AE058D0E92FF0E0ED5C5A
:100A4000FE4F808980933802809139024ED0E82F82
:100A5000F0E0ED5CFE4F80898093370280913B028D
:100A600044D0E92FF0E0ED5CFE4F808980688093F0
:100A7000360280913B0239D0E82FF0E0ED5CFE4F6A
:100A800080898093350280913C022FD0E92FF0E0DD
:100A9000ED5CFE4F808980688093340280913C0237
:100AA00024D0E82FF0E0ED5CFE4F80898093330284
:100AB0008091390280FD10C083E0D2DD6AE070E0F1
:100AC00020D080914302861718F41092F00104C0E0
:100AD00080913A028093F00180E08F5FFE013197B0
:100AE000F1F78A3009F4A2CFF8CF991B79E004C05E
:100AF000991F961708F0961B881F7A95C9F780955D
:100B00000895AA1BBB1B51E107C0AA1FBB1FA61754
:100B1000B70710F0A61BB70B881F991F5A95A9F7A6
:100B200080959095BC01CD010895F999FECF12BC36
:100B300081BDF89A992780B50895262FF999FECF9F
:100B40001FBA12BC81BD20BD0FB6F894FA9AF99A6B
:0A0B50000FBE01960895F894FFCF40
:100B5A0000505245535300534554204800534554BE
:100B6A00204D005A45524F2053004252494748549B
:100B7A00004252492E00544852455348004C4556AB
:100B8A00454C0000000000000000000000000000CA
:100B9A000080003F065B4F666D7D077F6F00000097
:100BAA0000000000777C585E79713D74301E7538FC
:100BBA0037545C736B506D781C3E7E766E5B00001A
:0A0BCA000000008040201008040025
:00000001FF
